:020000040000FA
:1000000000000228B530FE000130FF008030000003
:10001000000024210000000083160000AF007F08CC
:10002000AE00B730B0000130B100831600002E08DA
:10003000B2002F08B300FF30AE07031CAF03330834
:10004000320403199A2804303007B200B301B30D0B
:100050003108B3073208FE003308FF00803000008B
:10006000000024210000000083160000B5007F0876
:10007000B4003008FE003108FF00803000000000AE
:1000800024210000000083160000B700B3007F08A1
:10009000B200B60002303007B200B301B30D310830
:1000A000B3073208FE003308FF0080300000000074
:1000B00024210000000083160000B300B9007F086F
:1000C000B800B200831600003408B8003508B90043
:1000D000FF30B407031CB50339083804031993280B
:1000E0003608FE003708FF00803000000000452180
:1000F0000000000083160000B800320883120313CA
:100100008400831383160000331883173808831282
:100110000313800083160000B60A0319B70AB20A57
:100120000319B30A6228063083160000B0070318CB
:10013000B10A1528000000009E2808002030831610
:10014000850083128501A3308316BA00BB01831694
:10015000A0018312851EAE288316A00A83162008EC
:10016000013A031D1C2958218316A1007F08A00015
:10017000013A031DC7282108003A031DC72804308F
:1001800083128500C830FF0000308A21232983169E
:100190002008023A031DD8282108003A031DD82858
:1001A000103083128500C830FF0000308A212329D7
:1001B00083162008033A031DE9282108003A031D8D
:1001C000E928143083128500C830FF0000308A21EE
:1001D000232983162008043A031DFA282108003A2F
:1001E000031DFA28113083128500C830FF0000304B
:1001F0008A21232983162008053A031D0B2921088B
:10020000003A031D0B29153083128500C830FF000A
:1002100000308A21232983162008063A031D1E294F
:100220002108003A031D1E29133083128500C830AF
:10023000FF0000308A212329831285018316BA0A20
:100240000319BB0AA7280800003A03192C29803A91
:1002500003193629FF0100347E08840083137F18B8
:1002600083170008FF00840A00080800000000004F
:100270005321FD00FE0FFF03FF0A00000000532181
:10028000FC007D08FF007C080800003A03194C2997
:10029000803A0319532900347E08840083137F18A1
:1002A0008317000808007F088A007E088200080083
:1002B000013083163A058316AC00AA00AB0100306A
:1002C000AD0003108316BB1B0314BB0CBA0C8316C2
:1002D0002D082C040319712905308316BA068030C5
:1002E000BB0603108316BB1B03143B0C8316AA002A
:1002F000AB01AA1BAB030310AB1B0314AB0CAA0C82
:100300000730AA05AB01AA0A0319AB0A2A08FF00A5
:100310002B0808008316A3007F08A200A401A501F2
:10032000831623082502031D972922082402031897
:10033000B429FB308316A6000430A700FF308316D3
:100340002607A800FF30A90027080318270FA907D0
:100350002808A6002908A70029082804031D9E29AB
:10036000A40A0319A50A9029080001340034BD34F9
:0C0370000134BC3400340134003400348B
:02400E00F73F7A
:00000001FF
